{
  "contractName": "MindApp",
  "abi": [
    {
      "inputs": [
        {
          "internalType": "address",
          "name": "_mindToken",
          "type": "address"
        }
      ],
      "stateMutability": "nonpayable",
      "type": "constructor"
    },
    {
      "inputs": [
        {
          "internalType": "address",
          "name": "",
          "type": "address"
        }
      ],
      "name": "investorinfo",
      "outputs": [
        {
          "internalType": "address",
          "name": "depositedby",
          "type": "address"
        },
        {
          "internalType": "uint256",
          "name": "balances",
          "type": "uint256"
        },
        {
          "internalType": "uint256",
          "name": "deposited_at",
          "type": "uint256"
        },
        {
          "internalType": "uint256",
          "name": "releasetime",
          "type": "uint256"
        }
      ],
      "stateMutability": "view",
      "type": "function"
    },
    {
      "inputs": [],
      "name": "liquidityAddress",
      "outputs": [
        {
          "internalType": "address payable",
          "name": "",
          "type": "address"
        }
      ],
      "stateMutability": "view",
      "type": "function"
    },
    {
      "inputs": [],
      "name": "mindToken",
      "outputs": [
        {
          "internalType": "address",
          "name": "",
          "type": "address"
        }
      ],
      "stateMutability": "view",
      "type": "function"
    },
    {
      "inputs": [],
      "name": "owner",
      "outputs": [
        {
          "internalType": "address",
          "name": "",
          "type": "address"
        }
      ],
      "stateMutability": "view",
      "type": "function"
    },
    {
      "inputs": [],
      "name": "stakeAddress",
      "outputs": [
        {
          "internalType": "address payable",
          "name": "",
          "type": "address"
        }
      ],
      "stateMutability": "view",
      "type": "function"
    },
    {
      "inputs": [
        {
          "internalType": "address",
          "name": "",
          "type": "address"
        }
      ],
      "name": "tokenbalances",
      "outputs": [
        {
          "internalType": "uint256",
          "name": "",
          "type": "uint256"
        }
      ],
      "stateMutability": "view",
      "type": "function"
    },
    {
      "inputs": [],
      "name": "tokenprice",
      "outputs": [
        {
          "internalType": "uint256",
          "name": "",
          "type": "uint256"
        }
      ],
      "stateMutability": "view",
      "type": "function"
    },
    {
      "inputs": [
        {
          "internalType": "address payable",
          "name": "_stakeAddress",
          "type": "address"
        }
      ],
      "name": "setstakeAddress",
      "outputs": [],
      "stateMutability": "nonpayable",
      "type": "function"
    },
    {
      "inputs": [
        {
          "internalType": "address payable",
          "name": "_liquidityAddress",
          "type": "address"
        }
      ],
      "name": "setliquidity",
      "outputs": [],
      "stateMutability": "nonpayable",
      "type": "function"
    },
    {
      "inputs": [
        {
          "internalType": "uint256",
          "name": "_tokenprice",
          "type": "uint256"
        }
      ],
      "name": "settokencost",
      "outputs": [],
      "stateMutability": "nonpayable",
      "type": "function"
    },
    {
      "inputs": [],
      "name": "deposit",
      "outputs": [],
      "stateMutability": "payable",
      "type": "function"
    },
    {
      "inputs": [],
      "name": "cancelInvestment",
      "outputs": [],
      "stateMutability": "nonpayable",
      "type": "function"
    },
    {
      "inputs": [],
      "name": "stakeInvestment",
      "outputs": [],
      "stateMutability": "nonpayable",
      "type": "function"
    }
  ],
  "bytecode": "0x60806040523480156200001157600080fd5b5060405162001c7838038062001c788339818101604052810190620000379190620000d6565b80600360006101000a81548173ffffffffffffffffffffffffffffffffffffffff021916908373ffffffffffffffffffffffffffffffffffffffff160217905550336000806101000a81548173ffffffffffffffffffffffffffffffffffffffff021916908373ffffffffffffffffffffffffffffffffffffffff160217905550506200015b565b600081519050620000d08162000141565b92915050565b600060208284031215620000ef57620000ee6200013c565b5b6000620000ff84828501620000bf565b91505092915050565b600062000115826200011c565b9050919050565b600073ffffffffffffffffffffffffffffffffffffffff82169050919050565b600080fd5b6200014c8162000108565b81146200015857600080fd5b50565b611b0d806200016b6000396000f3fe6080604052600436106100c25760003560e01c806394f8e9541161007f578063d0bd4c7311610059578063d0bd4c7314610230578063d0e30db01461025b578063d867468814610265578063f71af22b146102a5576100c2565b806394f8e954146101c5578063bdfecc78146101dc578063d01cc48b14610205576100c2565b80630ab1e603146100c757806328739c1e146100de5780633221c93f146101075780636bb9e88714610132578063851073671461016f5780638da5cb5b1461019a575b600080fd5b3480156100d357600080fd5b506100dc6102ce565b005b3480156100ea57600080fd5b50610105600480360381019061010091906113ab565b6106a5565b005b34801561011357600080fd5b5061011c610707565b6040516101299190611524565b60405180910390f35b34801561013e57600080fd5b5061015960048036038101906101549190611324565b61072d565b60405161016691906116b6565b60405180910390f35b34801561017b57600080fd5b50610184610745565b6040516101919190611524565b60405180910390f35b3480156101a657600080fd5b506101af61076b565b6040516101bc9190611509565b60405180910390f35b3480156101d157600080fd5b506101da61078f565b005b3480156101e857600080fd5b5061020360048036038101906101fe9190611351565b610ba5565b005b34801561021157600080fd5b5061021a610c41565b6040516102279190611509565b60405180910390f35b34801561023c57600080fd5b50610245610c67565b60405161025291906116b6565b60405180910390f35b610263610c6d565b005b34801561027157600080fd5b5061028c60048036038101906102879190611324565b610d75565b60405161029c9493929190611591565b60405180910390f35b3480156102b157600080fd5b506102cc60048036038101906102c79190611351565b610dc5565b005b600660003373ffffffffffffffffffffffffffffffffffffffff1673ffffffffffffffffffffffffffffffffffffffff16815260200190815260200160002060030154421015610353576040517f08c379a000000000000000000000000000000000000000000000000000000000815260040161034a90611636565b60405180910390fd5b6000600660003373ffffffffffffffffffffffffffffffffffffffff1673ffffffffffffffffffffffffffffffffffffffff16815260200190815260200160002060010154116103d8576040517f08c379a00000000000000000000000000000000000000000000000000000000081526004016103cf90611696565b60405180910390fd5b6000600560003373ffffffffffffffffffffffffffffffffffffffff1673ffffffffffffffffffffffffffffffffffffffff168152602001908152602001600020541161045a576040517f08c379a0000000000000000000000000000000000000000000000000000000008152600401610451906115d6565b60405180910390fd5b600160009054906101000a900473ffffffffffffffffffffffffffffffffffffffff1673ffffffffffffffffffffffffffffffffffffffff166108fc600660003373ffffffffffffffffffffffffffffffffffffffff1673ffffffffffffffffffffffffffffffffffffffff168152602001908152602001600020600101549081150290604051600060405180830381858888f19350505050158015610504573d6000803e3d6000fd5b50600360009054906101000a900473ffffffffffffffffffffffffffffffffffffffff1673ffffffffffffffffffffffffffffffffffffffff1663a9059cbb600260009054906101000a900473ffffffffffffffffffffffffffffffffffffffff16600560003373ffffffffffffffffffffffffffffffffffffffff1673ffffffffffffffffffffffffffffffffffffffff168152602001908152602001600020546040518363ffffffff1660e01b81526004016105c392919061153f565b602060405180830381600087803b1580156105dd57600080fd5b505af11580156105f1573d6000803e3d6000fd5b505050506040513d601f19601f82011682018060405250810190610615919061137e565b506000600660003373ffffffffffffffffffffffffffffffffffffffff1673ffffffffffffffffffffffffffffffffffffffff168152602001908152602001600020600101819055506000600560003373ffffffffffffffffffffffffffffffffffffffff1673ffffffffffffffffffffffffffffffffffffffff16815260200190815260200160002081905550565b60008054906101000a900473ffffffffffffffffffffffffffffffffffffffff1673ffffffffffffffffffffffffffffffffffffffff163373ffffffffffffffffffffffffffffffffffffffff16146106fd57600080fd5b8060048190555050565b600160009054906101000a900473ffffffffffffffffffffffffffffffffffffffff1681565b60056020528060005260406000206000915090505481565b600260009054906101000a900473ffffffffffffffffffffffffffffffffffffffff1681565b60008054906101000a900473ffffffffffffffffffffffffffffffffffffffff1681565b600660003373ffffffffffffffffffffffffffffffffffffffff1673ffffffffffffffffffffffffffffffffffffffff16815260200190815260200160002060030154421015610814576040517f08c379a000000000000000000000000000000000000000000000000000000000815260040161080b906115f6565b60405180910390fd5b6000600660003373ffffffffffffffffffffffffffffffffffffffff1673ffffffffffffffffffffffffffffffffffffffff1681526020019081526020016000206001015411610899576040517f08c379a000000000000000000000000000000000000000000000000000000000815260040161089090611656565b60405180910390fd5b6000600560003373ffffffffffffffffffffffffffffffffffffffff1673ffffffffffffffffffffffffffffffffffffffff168152602001908152602001600020541161091b576040517f08c379a000000000000000000000000000000000000000000000000000000000815260040161091290611676565b60405180910390fd5b60003390508073ffffffffffffffffffffffffffffffffffffffff166108fc600660003373ffffffffffffffffffffffffffffffffffffffff1673ffffffffffffffffffffffffffffffffffffffff168152602001908152602001600020600101549081150290604051600060405180830381858888f193505050501580156109a8573d6000803e3d6000fd5b506000600660003373ffffffffffffffffffffffffffffffffffffffff1673ffffffffffffffffffffffffffffffffffffffff168152602001908152602001600020600101819055506000600660003373ffffffffffffffffffffffffffffffffffffffff1673ffffffffffffffffffffffffffffffffffffffff168152602001908152602001600020600301819055506000600560003373ffffffffffffffffffffffffffffffffffffffff1673ffffffffffffffffffffffffffffffffffffffff168152602001908152602001600020549050600360009054906101000a900473ffffffffffffffffffffffffffffffffffffffff1673ffffffffffffffffffffffffffffffffffffffff16639dc29fac30836040518363ffffffff1660e01b8152600401610ada929190611568565b600060405180830381600087803b158015610af457600080fd5b505af1158015610b08573d6000803e3d6000fd5b50505050610b5e81600560003373ffffffffffffffffffffffffffffffffffffffff1673ffffffffffffffffffffffffffffffffffffffff16815260200190815260200160002054610e6190919063ffffffff16565b600560003373ffffffffffffffffffffffffffffffffffffffff1673ffffffffffffffffffffffffffffffffffffffff168152602001908152602001600020819055505050565b60008054906101000a900473ffffffffffffffffffffffffffffffffffffffff1673ffffffffffffffffffffffffffffffffffffffff163373ffffffffffffffffffffffffffffffffffffffff1614610bfd57600080fd5b80600260006101000a81548173ffffffffffffffffffffffffffffffffffffffff021916908373ffffffffffffffffffffffffffffffffffffffff16021790555050565b600360009054906101000a900473ffffffffffffffffffffffffffffffffffffffff1681565b60045481565b6000349050600033905060008211610cba576040517f08c379a0000000000000000000000000000000000000000000000000000000008152600401610cb190611616565b60405180910390fd5b6000610ce36064610cd5605a86610e7790919063ffffffff16565b610e8d90919063ffffffff16565b9050610cef8183610ea3565b6000610d048285610e6190919063ffffffff16565b9050600160009054906101000a900473ffffffffffffffffffffffffffffffffffffffff1673ffffffffffffffffffffffffffffffffffffffff166108fc829081150290604051600060405180830381858888f19350505050158015610d6e573d6000803e3d6000fd5b5050505050565b60066020528060005260406000206000915090508060000160009054906101000a900473ffffffffffffffffffffffffffffffffffffffff16908060010154908060020154908060030154905084565b60008054906101000a900473ffffffffffffffffffffffffffffffffffffffff1673ffffffffffffffffffffffffffffffffffffffff163373ffffffffffffffffffffffffffffffffffffffff1614610e1d57600080fd5b80600160006101000a81548173ffffffffffffffffffffffffffffffffffffffff021916908373ffffffffffffffffffffffffffffffffffffffff16021790555050565b60008183610e6f91906117c3565b905092915050565b60008183610e859190611769565b905092915050565b60008183610e9b9190611738565b905092915050565b610ef882600660008473ffffffffffffffffffffffffffffffffffffffff1673ffffffffffffffffffffffffffffffffffffffff168152602001908152602001600020600101546111d290919063ffffffff16565b600660008373ffffffffffffffffffffffffffffffffffffffff1673ffffffffffffffffffffffffffffffffffffffff1681526020019081526020016000206001018190555080600660008373ffffffffffffffffffffffffffffffffffffffff1673ffffffffffffffffffffffffffffffffffffffff16815260200190815260200160002060000160006101000a81548173ffffffffffffffffffffffffffffffffffffffff021916908373ffffffffffffffffffffffffffffffffffffffff16021790555042600660008373ffffffffffffffffffffffffffffffffffffffff1673ffffffffffffffffffffffffffffffffffffffff16815260200190815260200160002060020181905550610384600660008373ffffffffffffffffffffffffffffffffffffffff1673ffffffffffffffffffffffffffffffffffffffff1681526020019081526020016000206002015461105691906116e2565b600660008373ffffffffffffffffffffffffffffffffffffffff1673ffffffffffffffffffffffffffffffffffffffff1681526020019081526020016000206003018190555060006110a7836111e8565b9050600360009054906101000a900473ffffffffffffffffffffffffffffffffffffffff1673ffffffffffffffffffffffffffffffffffffffff166340c10f1930836040518363ffffffff1660e01b8152600401611106929190611568565b600060405180830381600087803b15801561112057600080fd5b505af1158015611134573d6000803e3d6000fd5b5050505061118a81600560003373ffffffffffffffffffffffffffffffffffffffff1673ffffffffffffffffffffffffffffffffffffffff168152602001908152602001600020546111d290919063ffffffff16565b600560003373ffffffffffffffffffffffffffffffffffffffff1673ffffffffffffffffffffffffffffffffffffffff16815260200190815260200160002081905550505050565b600081836111e091906116e2565b905092915050565b60008061121a670de0b6b3a764000061120c60045486610e7790919063ffffffff16565b610e8d90919063ffffffff16565b90506000670de0b6b3a76400008411801561123c5750674563918244f4000084105b1561127d57611268606461125a600a85610e7790919063ffffffff16565b610e8d90919063ffffffff16565b9050808261127691906116e2565b91506112c6565b674563918244f400008411156112c5576112b460646112a6601485610e7790919063ffffffff16565b610e8d90919063ffffffff16565b905080826112c291906116e2565b91505b5b8192505050919050565b6000813590506112df81611a7b565b92915050565b6000813590506112f481611a92565b92915050565b60008151905061130981611aa9565b92915050565b60008135905061131e81611ac0565b92915050565b60006020828403121561133a576113396118e5565b5b6000611348848285016112d0565b91505092915050565b600060208284031215611367576113666118e5565b5b6000611375848285016112e5565b91505092915050565b600060208284031215611394576113936118e5565b5b60006113a2848285016112fa565b91505092915050565b6000602082840312156113c1576113c06118e5565b5b60006113cf8482850161130f565b91505092915050565b6113e181611851565b82525050565b6113f081611809565b82525050565b6113ff816117f7565b82525050565b60006114126038836116d1565b915061141d826118ea565b604082019050919050565b6000611435602d836116d1565b915061144082611939565b604082019050919050565b6000611458601f836116d1565b915061146382611988565b602082019050919050565b600061147b6020836116d1565b9150611486826119b1565b602082019050919050565b600061149e6021836116d1565b91506114a9826119da565b604082019050919050565b60006114c1601e836116d1565b91506114cc82611a29565b602082019050919050565b60006114e4601e836116d1565b91506114ef82611a52565b602082019050919050565b61150381611847565b82525050565b600060208201905061151e60008301846113f6565b92915050565b600060208201905061153960008301846113e7565b92915050565b600060408201905061155460008301856113d8565b61156160208301846114fa565b9392505050565b600060408201905061157d60008301856113f6565b61158a60208301846114fa565b9392505050565b60006080820190506115a660008301876113f6565b6115b360208301866114fa565b6115c060408301856114fa565b6115cd60608301846114fa565b95945050505050565b600060208201905081810360008301526115ef81611405565b9050919050565b6000602082019050818103600083015261160f81611428565b9050919050565b6000602082019050818103600083015261162f8161144b565b9050919050565b6000602082019050818103600083015261164f8161146e565b9050919050565b6000602082019050818103600083015261166f81611491565b9050919050565b6000602082019050818103600083015261168f816114b4565b9050919050565b600060208201905081810360008301526116af816114d7565b9050919050565b60006020820190506116cb60008301846114fa565b92915050565b600082825260208201905092915050565b60006116ed82611847565b91506116f883611847565b9250827fffffffffffffffffffffffffffffffffffffffffffffffffffffffffffffffff0382111561172d5761172c611887565b5b828201905092915050565b600061174382611847565b915061174e83611847565b92508261175e5761175d6118b6565b5b828204905092915050565b600061177482611847565b915061177f83611847565b9250817fffffffffffffffffffffffffffffffffffffffffffffffffffffffffffffffff04831182151516156117b8576117b7611887565b5b828202905092915050565b60006117ce82611847565b91506117d983611847565b9250828210156117ec576117eb611887565b5b828203905092915050565b600061180282611827565b9050919050565b600061181482611827565b9050919050565b60008115159050919050565b600073ffffffffffffffffffffffffffffffffffffffff82169050919050565b6000819050919050565b600061185c82611863565b9050919050565b600061186e82611875565b9050919050565b600061188082611827565b9050919050565b7f4e487b7100000000000000000000000000000000000000000000000000000000600052601160045260246000fd5b7f4e487b7100000000000000000000000000000000000000000000000000000000600052601260045260246000fd5b600080fd5b7f4e6f20696e766573746d656e742068617320646f6e65206561726c6965722c2060008201527f5374616b696e67206973206e6f74207065726d69747465640000000000000000602082015250565b7f46756e64732063616e206e6f742062652072656c6561736564206265666f726560008201527f206c6f636b2d696e2074696d6500000000000000000000000000000000000000602082015250565b7f46756e64732063616e206e6f74206265206c657373207468616e207a65726f00600082015250565b7f4c6f636b2d696e20706572696f6420686173206e6f7420656e64656420796574600082015250565b7f5468657265206973206e6f20657468657220746f20626520776974686472617760008201527f6e00000000000000000000000000000000000000000000000000000000000000602082015250565b7f4e6f20696e766573746d656e742068617320646f6e65206561726c6965720000600082015250565b7f5468657265206973206e6f20657468657220746f206265207374616b65640000600082015250565b611a84816117f7565b8114611a8f57600080fd5b50565b611a9b81611809565b8114611aa657600080fd5b50565b611ab28161181b565b8114611abd57600080fd5b50565b611ac981611847565b8114611ad457600080fd5b5056fea26469706673582212205b8f270d96352f39bfe0123aeffb64e66a3ef2eb90f5a0ffaff28a04c6fcc90364736f6c63430008060033",
  "immutableReferences": {},
  "source": "// SPDX-License-Identifier: MIT\r\npragma solidity ^0.8.6;\r\n\r\nimport \"./IToken.sol\";\r\nimport \"@openzeppelin/contracts/token/ERC20/utils/SafeERC20.sol\";\r\nimport \"@openzeppelin/contracts/utils/math/SafeMath.sol\";\r\nimport \"@openzeppelin/contracts/access/Ownable.sol\";\r\n\r\ncontract MindApp {\r\n    using SafeMath for uint256;\r\n    using SafeERC20 for IToken; \r\n    address public owner;\r\n    address payable public liquidityAddress;\r\n    address payable public stakeAddress;  \r\n    address public mindToken; \r\n    uint256 public tokenprice; \r\n\r\n    struct Investor{\r\n        address depositedby;\r\n        uint256 balances;\r\n        uint256 deposited_at;\r\n        uint256 releasetime;\r\n    }\r\n\r\n    mapping(address => uint256) public tokenbalances; \r\n\r\n    mapping(address => Investor) public investorinfo;\r\n\r\n    // event LogDeposit(address sender, uint amount, uint releaseTime);   \r\n    // event LogcancelInvest(address receiver, uint amount);\r\n\r\n    constructor(address _mindToken) {        \r\n        mindToken = _mindToken;\r\n        owner = msg.sender;\r\n    }\r\n\r\n    function setstakeAddress(address payable _stakeAddress) public {\r\n        require(msg.sender==owner);\r\n        stakeAddress = _stakeAddress;\r\n    }\r\n\r\n    function setliquidity(address payable _liquidityAddress) public{\r\n        require(msg.sender==owner);\r\n        liquidityAddress= _liquidityAddress;\r\n    }\r\n\r\n    function settokencost(uint _tokenprice) public{\r\n        require(msg.sender==owner);\r\n        tokenprice = _tokenprice;\r\n    }\r\n\r\n    function deposit() external payable {\r\n        uint256 amount = msg.value;\r\n        address depositedby = msg.sender;\r\n\r\n        require(amount>0,\"Funds can not be less than zero\");\r\n        uint256 investingamount = amount.mul(90).div(100);\r\n\r\n        _depositInternal(investingamount, depositedby);\r\n\r\n         //10% amount to be sent to the liquiditycontract\r\n        uint256 onetenth_amount = amount.sub(investingamount);\r\n        liquidityAddress.transfer(onetenth_amount);\r\n    }\r\n\r\n    function _depositInternal(uint256 investingamount, address depositedby) internal {\r\n        \r\n        investorinfo[depositedby].balances = investorinfo[depositedby].balances.add(investingamount); \r\n\r\n        investorinfo[depositedby].depositedby = depositedby;  \r\n        investorinfo[depositedby].deposited_at = block.timestamp;\r\n        investorinfo[depositedby].releasetime = investorinfo[depositedby].deposited_at + 15 minutes;       \r\n\r\n        uint256 numOfTokens = mintedtokens(investingamount);\r\n\r\n        IToken(mindToken).mint(address(this), numOfTokens);\r\n\r\n        tokenbalances[msg.sender]=tokenbalances[msg.sender].add(numOfTokens);\r\n    }\r\n\r\n    // Function for finding number of tokens that need to minted after depositing Ether\r\n\r\n    function mintedtokens(uint256 amount) internal view returns(uint256){\r\n\r\n        uint256 numberoftokens = amount.mul(tokenprice).div(1000000000000000000); \r\n        uint256 bonustokens;\r\n        if(amount>1 ether && amount< 5 ether){\r\n            bonustokens = numberoftokens.mul(10).div(100);\r\n            numberoftokens+=bonustokens; \r\n        }\r\n        else if(amount>5 ether){\r\n            bonustokens = numberoftokens.mul(20).div(100);\r\n            numberoftokens+=bonustokens; \r\n        }\r\n        return numberoftokens;\r\n    }\r\n\r\n    //Function for cancelling investment\r\n\r\n    function cancelInvestment() external {\r\n\r\n        require(block.timestamp>=investorinfo[msg.sender].releasetime, \"Funds can not be released before lock-in time\");\r\n        require(investorinfo[msg.sender].balances>0, \"There is no ether to be withdrawn\");\r\n        require(tokenbalances[msg.sender]>0, \"No investment has done earlier\");\r\n\r\n        address payable receiver = payable(msg.sender);\r\n        receiver.transfer(investorinfo[msg.sender].balances);\r\n\r\n        investorinfo[msg.sender].balances = 0; \r\n        investorinfo[msg.sender].releasetime = 0; \r\n        uint256 mtkBalance = tokenbalances[msg.sender];\r\n        IToken(mindToken).burn(address(this), mtkBalance);\r\n        tokenbalances[msg.sender]=tokenbalances[msg.sender].sub(mtkBalance);\r\n    }\r\n\r\n    function stakeInvestment() external{\r\n        \r\n        require(block.timestamp>=investorinfo[msg.sender].releasetime, \"Lock-in period has not ended yet\");\r\n        require(investorinfo[msg.sender].balances>0, \"There is no ether to be staked\");\r\n        require(tokenbalances[msg.sender]>0, \"No investment has done earlier, Staking is not permitted\");\r\n\r\n        liquidityAddress.transfer(investorinfo[msg.sender].balances);\r\n\r\n        IToken(mindToken).transfer(stakeAddress, tokenbalances[msg.sender]);\r\n\r\n        investorinfo[msg.sender].balances = 0;\r\n        tokenbalances[msg.sender] = 0; \r\n    }\r\n}",
  "sourcePath": "/newfolder/MindPay/contracts/Investment.sol",
  "compiler": {
    "name": "solc",
    "version": "0.8.6+commit.11564f7e.Emscripten.clang"
  },
  "schemaVersion": "3.4.3",
  "updatedAt": "2021-12-02T15:06:53.877Z",
  "devdoc": {
    "kind": "dev",
    "methods": {},
    "version": 1
  },
  "userdoc": {
    "kind": "user",
    "methods": {},
    "version": 1
  }
}